:020000020000FC
:100000000FE107BB00E008BB08D021D006D048D0E4
:1000100004D060D002D06CD0F7CFC09AC8EED3E045
:1000200090D0C098C19AC8EED3E08BD0C198C29A44
:10003000C8EED3E086D0C298C39AC8EED3E081D090
:10004000C398C49AC8EED3E07CD0C498089543E026
:10005000C09AC4E6D0E075D0C098C4E6D0E071D0B4
:10006000C19AC4E6D0E06DD0C198C4E6D0E069D0B2
:10007000C29AC4E6D0E065D0C298C4E6D0E061D0B0
:10008000C39AC4E6D0E05DD0C398C4E6D0E059D0AE
:10009000C49AC4E6D0E055D0C4984A95C9F60895EC
:1000A00043E0C09AC4E6D0E04CD0C19AC4E6D0E0A8
:1000B00048D0C29AC4E6D0E044D0C39AC4E6D0E0A7
:1000C00040D0C49AC4E6D0E03CD0002708BB4A9593
:1000D00041F7089543E00FE108BBC4E6D0E031D01A
:1000E000002708BBC4E6D0E02CD04A95D1F608958D
:1000F00043E0C09AC4E6D0E024D0C098C4E6D0E083
:1001000020D0C29AC4E6D0E01CD0C298C4E6D0E0A9
:1001100018D0C49AC4E6D0E014D0C498C4E6D0E0A5
:1001200010D0C19AC4E6D0E00CD0C198C4E6D0E0AB
:1001300008D0C39AC4E6D0E004D0C3984A95C9F663
:10014000089507D02197E9F7089503D00A95E9F7B4
:100150000895CF93DF93C5EFD0E02197F1F7DF91BA
:10016000CF91089503D00A95E9F7089500000000A3
:0401700000000895EE
:00000001FF
